:1000000045C0000060C000005EC000005CC0000091
:100010005AC0000058C0000056C0000054C0000084
:1000200052C0000050C000004EC000004CC0000094
:100030004AC0000048C0000046C0000044C00000A4
:1000400042C0000040C00000FFC000003CC00000F3
:100050003AC0000038C0000036C0000034C00000C4
:1000600032C0000030C000002EC000002CC00000D4
:100070002AC0000028C0000026C0000024C00000E4
:1000800022C0000020C000001EC0000011241FBEBE
:10009000CFEFD0E1DEBFCDBF11E0A0E0B1E0E4E101
:1000A000F4E000E00BBF02C007900D92A233B1074D
:1000B000D9F721E0A2E3B1E001C01D92AD35B2074E
:1000C000E1F76DD1A5C19CCF0F931F93CF93DF9321
:1000D000C9E3D1E00DE311E08BD1899390E08CD19D
:1000E000C017D107C9F7CDE4D1E001E511E080D117
:1000F000899390E081D10C171D07C9F7C5E3D1E0C2
:1001000009E311E075D1899390E076D10C171D07B2
:10011000C9F7DF91CF911F910F9108950F931F930E
:10012000CF93DF93C9E5D1E00DE511E061D189936B
:1001300090E062D1C017D107C9F7CDE3D1E001E467
:1001400011E056D1899390E057D10C171D07C9F7DC
:10015000C1E5D1E005E511E04BD1899390E04CD1A8
:100160000C171D07C9F7DF91CF911F910F910895CB
:100170000F931F93CF93DF93C2E3D1E005E311E028
:1001800037D1899390E038D1C017D107C9F7C5E4BA
:10019000D1E009E411E02CD1899390E02DD1C01772
:1001A000D107C9F7DF91CF911F910F9108950F9358
:1001B0001F93CF93DF931CD1C7E5D1E0888390E0F4
:1001C0001BD116D1898390E017D112D1C5E5D1E0BA
:1001D000888390E011D10CD1898390E00DD1C9E4DE
:1001E000D1E00DE411E004D1899390E005D10C1722
:1001F0001D07C9F7DF91CF911F910F91089580914D
:100200004301843029F4809144018C3A99F45CDFF5
:1002100080914301853029F4809144018C3A99F40E
:100220007DDF809143018F3029F4809144018C3A25
:1002300051F49EDF809143018B3029F48091440179
:100240008C3A09F4B4CF08951F920F920FB60F9213
:1002500011240BB60F922F933F934F935F936F939D
:100260007F938F939F93AF93BF93EF93FF9380916F
:100270000001909101012CB1FC01EF5BFE4F208346
:1002800001969093010180930001039739F4B7DF41
:1002900081E090E09093010180930001FF91EF9144
:1002A000BF91AF919F918F917F916F915F914F918E
:1002B0003F912F910F900BBE0F900FBE0F901F908C
:1002C0001895CF93DF93CFE0CABB82E091E094D042
:1002D000CBBB2FEF81EE94E0215080409040E1F7BE
:1002E00000C00000D0EFDBBB2FEF81EE94E0215087
:1002F00080409040E1F700C0000086E091E07CD0B3
:10030000CBBB2FEF81EE94E0215080409040E1F78D
:1003100000C00000DBBB2FEF81EE94E02150804055
:100320009040E1F700C000008AE091E065D0CBBBCF
:100330002FEF81EE94E0215080409040E1F700C023
:100340000000DBBB2FEF81EE94E021508040904015
:10035000E1F700C000008EE091E04ED0CBBB2FEF64
:1003600081EE94E0215080409040E1F700C0000011
:10037000DBBB2FEF81EE94E0215080409040E1F70D
:1003800000C000001BBA2FEF81EE94E021508040A6
:100390009040E1F700C00000DF91CF91089517D0A1
:1003A0002FEF83ED90E3215080409040E1F700C0B3
:1003B000000087DF2FEF83ED90E3215080409040D5
:1003C000E1F700C000007DDF789419DFFECF1BB895
:1003D0001AB8E5E9F0E01082599A8AB188698AB9B9
:1003E00080818E60808387E689B91092900008959D
:1003F0005F9BFECF8CB10895FC019081992339F069
:1004000031965D9BFECF9CB991919111FACF0895E1
:04041000F894FFCF8E
:1004140001005F615F005F625F005F635F005F64B4
:100424005F00206C65645F612000206C65645F621E
:100434002000206C65645F632000206C65645F6449
:02044400200096
:00000001FF
