S02000004F42436D2D2D4750532D2D4654323031372D2D526F6869742E7372656361
S113000045C0000060C000005EC000005CC000008D
S11300105AC0000058C0000056C0000054C0000080
S113002052C0000050C000004EC000004CC0000090
S11300304AC0000048C0000046C0000044C00000A0
S113004042C0000040C0000056C000003CC0000098
S11300503AC0000038C0000036C0000034C00000C0
S113006032C0000030C000002EC000002CC00000D0
S11300702AC0000028C0000026C0000024C00000E0
S113008022C0000020C000001EC0000011241FBEBA
S1130090CFEFD0E1DEBFCDBF11E0A0E0B1E0ECEBEB
S11300A0F1E000E00BBF02C007900D92A030B10751
S11300B0D9F728E0A0E0B1E001C01D92A93FB20742
S11300C0E1F75AD079C09CCF0F931F93CF93DF935E
S11300D0C1E1D1E007E211E0899190E061D0C0175D
S11300E0D107D1F71092010110920001DF91CF9155
S11300F01F910F9108951F920F920FB60F92112422
S11301000BB60F922F933F934F935F936F937F930D
S11301108F939F93AF93BF93EF93FF9380910001CD
S1130120909101012CB1FC01EF5EFE4F20830196FA
S11301309093010180930001469754F0F8948091C4
S113014011018F3329F4809112018F3309F4BCDF3C
S11301507894FF91EF91BF91AF919F918F917F918F
S11301606F915F914F913F912F910F900BBE0F9024
S11301700FBE0F901F90189502D07894FFCF1BB834
S11301801AB8E5E9F0E01082599A8AB188698AB907
S113019080818E60808387E689B9109290000895EB
S11301A0FC019081992339F031965D9BFECF9CB977
S10F01B091919111FACF0895F894FFCFBB
S9030000FC
