:1000000045C0000060C000005EC000005CC0000091
:100010005AC0000058C0000056C0000054C0000084
:1000200052C0000050C000004EC000004CC0000094
:100030004AC0000048C0000046C0000044C00000A4
:1000400042C0000040C000003FC000003CC00000B3
:100050003AC0000038C0000036C0000034C00000C4
:1000600032C0000030C000002EC000002CC00000D4
:100070002AC0000028C0000026C0000024C00000E4
:1000800022C0000020C000001EC0000011241FBEBE
:10009000CFEFD0E1DEBFCDBF11E0A0E0B1E0E4E5FD
:1000A000F4E000E00BBF02C007900D92A630B1074C
:1000B000D9F721E0A6E0B1E001C01D92AE30B20751
:1000C000E1F7AED1C5C19CCF1F920F920FB60F9230
:1000D00011240BB60F922F933F934F935F936F931F
:1000E0007F938F939F93AF93BF93EF93FF938CB1C5
:1000F000873639F481E090E090930D0180930C01F4
:1001000007C080910C0190910D01019709F075C114
:100110009BB380EF89278BBB8CB1809307018091C3
:10012000080190910901A0910A01B0910B01BA2F29
:10013000A92F982F88278093080190930901A093F5
:100140000A01B0930B018091080190910901A091DF
:100150000A01B0910B01882780930801909309014F
:10016000A0930A01B0930B0120910701809108012F
:1001700090910901A0910A01B0910B01822B80930B
:10018000080190930901A0930A01B0930B0180919B
:10019000080190910901A0910A01B0910B018C3ADC
:1001A0009440AF43BF4339F484E04ED1109206012E
:1001B0001092040147C08091080190910901A0911B
:1001C0000A01B0910B018C3A9540AF43BF4329F42B
:1001D00085E03AD11092030135C0809108019091D9
:1001E0000901A0910A01B0910B018C3A9B40AF43E9
:1001F000BF4329F48BE028D11092020123C08091E3
:10020000080190910901A0910A01B0910B018C3A6B
:100210009E40AF43BF4329F48EE016D110920101F6
:1002200011C08091080190910901A0910A01B0913B
:100230000B018C3A9F40AF43BF4321F48FE004D1C0
:1002400010920001809104018D3038F580910401F5
:10025000882341F080910401853020F480910701CA
:10026000F3D00FC080910401893020F48091070100
:10027000EBD007C0809104018D3018F48091070104
:10028000E3D0809104018F5F809304018091040189
:100290008D3019F48FEF80930401809103018C302D
:1002A00018F580910301843020F480910701CCD0AF
:1002B0000FC080910301883020F480910701C4D0E1
:1002C00007C0809103018C3018F480910701BCD0E5
:1002D000809103018F5F80930301809103018C3033
:1002E00019F48FEF8093030180910201843098F418
:1002F00080910201823018F080910701A5D0809191
:1003000002018F5F8093020180910201843019F411
:100310008FEF8093020180910101803138F5809147
:1003200001018430B8F080910101883020F480917F
:1003300007018AD00FC0809101018C3020F4809198
:10034000070182D007C080910101803118F48091AB
:1003500007017AD0809101018F5F80930101809124
:100360000101803119F48FEF809301018091000128
:10037000873008F042C080910001811104C0809153
:10038000070162D027C080910001813021F4809163
:1003900007015AD01FC080910001823021F4809162
:1003A000070152D017C080910001833021F4809161
:1003B00007014AD00FC080910001843021F4809160
:1003C000070142D007C080910001853018F080916C
:1003D00007013AD0809100018F5F809300018091E6
:1003E0000001873051F48FEF8093000181E080930A
:1003F000060110920D0110920C01FF91EF91BF9137
:10040000AF919F918F917F916F915F914F913F91AC
:100410002F910F900BBE0F900FBE0F901F9018954D
:1004200002D07894FFCF1BB81AB8E5E9F0E010824B
:10043000599A8AB188698AB980818E60808387E6FB
:1004400089B91092900008955D9BFECF8CB90895F4
:04045000F894FFCF4E
:06045400FFFFFFFFFF00A7
:00000001FF
