S01C00004465765F426F617264735F5F41546D65676133322E73726563DD
S11300000C942A000C943F000C943F000C943F0085
S11300100C943F000C943F000C943F000C943F0060
S11300200C943F000C943F000C943F000C943F0050
S11300300C943F000C943F000C943F000C943F0040
S11300400C943F000C943F000C943F000C943F0030
S11300500C943F0011241FBECFE5D8E0DEBFCDBF16
S113006010E0A0E6B0E0EEEFF0E002C005900D92E3
S1130070AA36B107D9F70E9441000C947D000C9474
S11300800000CF93DF93CDB7DEB729970FB6F8946E
S1130090DEBF0FBECDBF0E945F0089E0E0E6F0E066
S11300A0DE01119601900D928A95E1F70E946D0090
S11300B08D36E1F7CE0101960E947100F7CF1BB88F
S11300C01AB810BC599A8AB188618AB980B58E6011
S11300D080BD8FEB89B910BC08955F9BFECF8CB1B6
S11300E00895FC019081992339F031965D9BFECFF0
S11100F09CB991919111FACF0895F894FFCF25
S10D00FE6D61675F646174610000C6
S9030000FC
