S011000053504920736C6176652E73726563EC
S11300000C942A000C9434000C9434000C943400A6
S11300100C9434000C9434000C9434000C9434008C
S11300200C9434000C9434000C9434000C9434007C
S11300300C9434000C9434000C9434000C9434006C
S11300400C9434000C9434000C9434000C9434005C
S11300500C94340011241FBECFE5D8E0DEBFCDBF21
S11300600E944A000C945E000C94000080E487BB5C
S11300708DB9089510BC8FE589B988E18AB98EE8F5
S113008080BD08955D9BFECF8CB90895779BFECF0C
S11300908FB108950E9436008FE590E00E943A00E7
S11300A00E9446000E9442002FEF8FE794E0215007
S11300B080409040E1F700C00000F2CFF894FFCFF9
S9030000FC
