:100000000C942A000C943F000C943F000C943F0089
:100010000C943F000C943F000C943F000C943F0064
:100020000C943F000C943F000C943F000C943F0054
:100030000C943F000C943F000C943F000C943F0044
:100040000C943F000C943F000C943F000C943F0034
:100050000C943F0011241FBECFE5D4E0DEBFCDBF1E
:1000600010E0A0E6B0E0EAECF0E002C005900D92EE
:10007000A236B107D9F70E9441000C9463000C949A
:1000800000000E944D0080E690E00E945B000E940C
:100090005F0099270E945B00F6CF1BB81AB810BC0E
:1000A000599A8AB188618AB980B58E6080BD87E629
:1000B00089B910BC08955D9BFECF8CB908955F9BF4
:0A00C000FECF8CB10895F894FFCF35
:0200CA006400D0
:00000001FF
