S01B00004465765F626F617264735F41546D65676133322E737265631D
S11300000C942A000C943F000C943F000C943F0085
S11300100C943F000C943F000C943F000C943F0060
S11300200C943F000C943F000C943F000C943F0050
S11300300C943F000C943F000C943F000C943F0040
S11300400C943F000C943F000C943F000C943F0030
S11300500C943F0011241FBECFE5D8E0DEBFCDBF16
S113006010E0A0E6B0E0EAECF0E002C005900D92EA
S1130070A236B107D9F70E9441000C9463000C9496
S113008000000E944D00C0E6D0E08C2F0E945B006F
S11300900E945F000E945B00F8CF1BB81AB810BC26
S11300A0599A8AB188618AB980B58E6080BD87E625
S11300B089B910BC08955D9BFECF8CB908955F9BF0
S10D00C0FECF8CB10895F894FFCF31
S10500CA6400CC
S9030000FC
