:100000000C942A000C9434000C9434000C943400AA
:100010000C9434000C9434000C9434000C94340090
:100020000C9434000C9434000C9434000C94340080
:100030000C9434000C9452000C9434000C94340052
:100040000C9434000C9434000C9434000C94340060
:100050000C94340011241FBECFE5D8E0DEBFCDBF25
:100060000E9446000C945D000C94000010BC8FE5CB
:1000700089B988E18AB98EE880BD08955D9BFECF7D
:100080008CB908955F9BFECF8CB108958FE590E009
:100090000E943600549A78940E9442008CB10E94CB
:1000A0003E00FACF1F920F920FB60F9211241CB888
:0E00B0000F900FBE0F901F901895F894FFCF81
:00000001FF
